:100000006F00507F13000000130000001300000079
:100010001300000013000000130000001300000094
:100020001300000013000000130000001300000084
:08003000130000007300100032
:100038000000000000000000080300000C0300009E
:10004800000000003A0F000000000000000000005F
:100058003C0F00003E0F0000000000000000000000
:10006800400F000000000000420F000000000000E8
:10007800440F0000460F0000480F00004A0F000020
:100088004C0F00004E0F0000500F0000520F0000F0
:10009800540F0000560F0000580F00005A0F0000C0
:1000A8005C0F00005E0F0000600F0000620F000090
:1000B800640F0000660F0000680F00006A0F000060
:1000C8006C0F00006E0F0000700F0000720F000030
:1000D800740F0000760F0000780F00007A0F000000
:1000E8007C0F00007E0F0000800F0000820F0000D0
:1000F800840F0000860F0000880F00008A0F0000A0
:100108008C0F0000C8070000900F0000920F00003D
:10011800940F0000960F0000980F00009A0F00003F
:100128009C0F00009E0F0000A00F0000A20F00000F
:10013800A40F0000A60F0000A80F0000AA0F0000DF
:10014800AC0F0000AE0F0000B00F0000B20F0000AF
:10015800B40F0000B60F0000B80F0000BA0F00007F
:10016800BC0F0000BE0F0000C00F0000C20F00004F
:10017800C40F0000C60F0000C80F0000CA0F00001F
:10018800CC0F0000CE0F0000D00F0000D20F0000EF
:10019800D40F0000D60F0000D80F0000DA0F0000BF
:1001A800DC0F0000DE0F0000E00F0000E20F00008F
:1001B800E40F0000E60F0000E80F0000EA0F00005F
:1001C800EC0F0000EE0F0000F00F0000F20F00002F
:1001D8000000000000000000000000000000000017
:1001E8000000000000000000000000000000000007
:0801F8000000000000000000FF
:10020000397101436EC619A0397141536AC866CA73
:1002100062CC5ECE19A0397101535AD056D252D455
:100220004ED64AD826DA22DC06DE330161408282CD
:1002300041114AC026C222C406C68282B24D410183
:10024000024D924C224CB24B4101024B924A224A3F
:10025000B2494101024992442244B24041018280A4
:100260003D432A876373C3029377F700BDEFADE583
:10027000937606FF3D8ABA960CC34CC30CC74CC795
:100280004107E36BD7FE11E28280B306C3408A06C2
:100290009702000096966780A6002307B700A30682
:1002A000B7002306B700A305B7002305B700A304D2
:1002B000B7002304B700A303B7002303B700A302CA
:1002C000B7002302B700A301B7002301B700A300C2
:1002D000B7002300B700828093F5F50F9396850051
:1002E000D58D93960501D58D61B79396270097021A
:1002F000000096968682E78086FA9680C1171D8F49
:100300003E96E374C3F8A5B77300203001A0EFF266
:100310003FF24111854513050004EF102008C14745
:100320003EC6856737240140938707F07C824C00E6
:100330008D47130504803EC4EF007054930780047A
:100340003EC64C00FD77130504807C82EF003053DD
:10035000410109B7EFF2DFED37240140056993054C
:1003600009F013050480EF00505E2945EF1080204E
:1003700013050480EF00B05C218193140501C18056
:100380009307000F6384F4007D5419A41305200320
:10039000EF10A021930509F013050480EF00F05A37
:1003A0002945EF10201D13050480EF0050592181CD
:1003B00042054181E30A95FC814513050480EF0065
:1003C000B0591545EF10601EC165938505E0130512
:1003D0000480EF00705813050480EF00505621810F
:1003E0001375050F631495007D5481A05145EF10DE
:1003F000C01B13050480EF00905421811375050F75
:10040000E30495FE13050480EF00705321811375FA
:10041000E50F9307E00B0D446309F50063ECA716A5
:100420009307E0071144E311F5FCB724014081452F
:1004300013850480EF0050521545EF100017C16579
:10044000938505D013850480EF0010511385048037
:10045000EF00F04E21811375050F1309000F6302A1
:1004600025055145EF10601413850480EF00304DD1
:1004700021811375050F6306250313850480EF00A2
:10048000104C21811375D50F9307D00B1D44630ABF
:10049000F50063EAA7109307D00721446303F50032
:1004A0007D54B7240140814513850480EF00D04A74
:1004B0001545EF10800FC165938505B01385048045
:1004C000EF00904913850480EF0070472181137578
:1004D000050F1309000F630225055145EF10E00CCD
:1004E00013850480EF00B04521811375050F630665
:1004F000250313850480EF00904421811375B50F07
:100500009307B00B2D44630AF50063E7A70A93072E
:10051000B00731446303F5007D54B72401408145A1
:1005200013850480EF0050431545EF100008BD65AA
:100530009385057013850480EF00104213850480B5
:10054000EF00F03F21811375050F1309000F6301C0
:1005500025055145EF10600513850480EF00303EFE
:1005600021811375050F6305250313850480EF00B2
:10057000103D21811375750F9307700B3D4463097E
:10058000F50063E4A704930770074144E31EF5DE1A
:100590002285C9B19307E00D0944E308F5E8930704
:1005A000E00E054449B59307D00D1944E30BF5EE71
:1005B0009307D00E1544DDB59307B00D2944E30E23
:1005C000F5F49307B00E2544B1B79307700D394485
:1005D000E300F5FC9307700E35444DBFEFF25FC5A5
:1005E000411185452A841305000202C202C402C6D5
:1005F000EF00D05AF9477C823715014091473EC63B
:100600004C008D47130505403EC4EF005027B1470D
:1006100063E0870289679387870D0A043E941C4034
:10062000828737150140F94513050540EF00F03189
:1006300041010DB199477C8237140140C1473EC644
:100640004C008D47130504403EC4EF0050238945FC
:1006500013050440EF00302F914525A099477C8277
:1006600037140140C1473EC64C008D471305044076
:100670003EC4EF00D020914513050440EF00B02C9C
:100680008945130504405DB7A9477C8237140140B2
:10069000C1473EC64C008D47130504403EC4EF00E1
:1006A000101E894513050440EF00F029A145D1BF74
:1006B000A9477C8237140140C1473EC64C008D4794
:1006C000130504403EC4EF00901BA14575B7C94710
:1006D0007C8237140140C1473EC64C008D4713054C
:1006E00004403EC4EF00B019894513050440EF00F3
:1006F0009025C14579B7C9477C8237140140C1476D
:100700003EC64C008D47130504403EC4EF00301731
:10071000C1459DB7B1477C8237140140C1473EC6F1
:100720004C008D47130504403EC4EF005015914521
:1007300095BFB1477C8237140140C1473EC64C008B
:100740008D47130504403EC4EF007013A14509B75F
:10075000D1477C8237140140C1473EC64C008D47CB
:10076000130504403EC4EF0090119145BDBFD14731
:100770007C8237140140C1473EC64C008D471305AB
:1007800004403EC4EF00B00FC145D9B5E1477C82BB
:1007900037140140C1473EC64C008D471305044045
:1007A0003EC4EF00D00DA14589B7E1477C823714E4
:1007B0000140C1473EC64C008D47130504403EC46E
:1007C000EF00F00BC145F9BD411122C6374401408D
:1007D0009305505213050480EF00705321C913058F
:1007E0000480EF00B05103C601819386C185B385B3
:1007F000C60088A194220945938701819385F6FC60
:1008000093F5F50F1387C1856364B500050690A3C2
:100810009023A5456310B60293051003639CB600B0
:10082000054798A32380E182238901803244410156
:10083000730020303A968345F6FF13061006639A3C
:10084000C50013072003E393E6FE054798A3094775
:10085000D1BF902332970346F7FF13072006E31713
:10086000E6FC13073003E393E6FC054798A30D4726
:1008700055BFEFF2FF9B41118545114502C202C4ED
:1008800002C6EF00B03185477C8237150140C14771
:100890003EC64C008D47130505803EC4EF00207E08
:1008A00041014DBAEFF2DF9841118545130500046F
:1008B00002C202C402C6EF00702E9D4737240140D9
:1008C0007C82C1473EC64C008D47130504803EC460
:1008D000EF00E07A130504808545EF00100713054B
:1008E00004808945EF003006914513050480EF0030
:1008F0009005410185B2EFF23F9159710945EF0032
:10090000F005EF009044716513050520EF00504D90
:100910008D37493FF92E2D23DD3A1305401FEF0097
:100920007045014A01490546054B1384C1859389E9
:10093000418337150140854513050580EF003001DF
:100940001306400681456800EFF09F9113860182EF
:100950001422054593842181639AA60C3C2018300B
:100960005430A207BA973830230006004207BA97DE
:1009700058206207BA97782023ACF1802207369777
:100980007430C20636971424E206369723AEE1800F
:10099000A38901806399E708D9E7238004002388AD
:1009A00001801305401FEF0050409C2005476395D0
:1009B000E7208D2E938C318183C70C009306700243
:1009C000138D81811387C18163EBF61883250D0098
:1009D0000843152E131905011359090113052003A6
:1009E000EF00B03C83C70C0085072380FC00B725CF
:1009F00000004A869385C5106800EF00D049680062
:100A0000D9211305F00FE52903270D00B14763E64F
:100A1000E7204A85E13663150B000546054B11BFFB
:100A20000146014B39B785479CA0A5BF8947639F05
:100A3000F60C3C2018304C30A207BA97383023000F
:100A400006004207BA975820A38901806207BA9727
:100A5000782023ACF18022072E976C30C2052E97A8
:100A60000C24E2052E9723AEE18093851181639AD1
:100A7000E70081EB238004002388018023800500A8
:100A80002DB783CF050083C20400238A018022850D
:100A90008148814313884181294F93FCF80F3386A5
:100AA0009F011376F60F639AE801E38003F090A1AB
:100AB0002380540023001801CDBD034D15003821BB
:100AC000834E3500034E45003363ED0033E36E0083
:100AD00033636E00631A0300E38903EC90A1238063
:100AE000540023009801D1B593178700EA97C20EEE
:100AF000F697620E0A06F2974E961CC26373FA00CE
:100B00003E8A850811058543B68241BF8D47E39E25
:100B1000F6E83C2018304C30A207BA973830230052
:100B200006004207BA9758206207BA97782023AC8C
:100B3000F18022072E976C30C2052E970C24E20517
:100B40002E9723AEE180E392E7E691E7238004004D
:100B50002388018099BDE39AA7E494A0B9B593874F
:100B600087FD93F7F70FCD4663E3F60283250D006B
:100B70000843512A83C70C001319050113052003EC
:100B8000938797FD135909013385A70291BD2380EF
:100B90000400B72401408945138504802320070001
:100BA00023200D005D231305401FEF001020894511
:100BB00013850480492B25BD09476390E70C9D22CE
:100BC000938C318183C70C009306700213871181C7
:100BD00063E7F6040C230145FD1535221375F50F67
:100BE0000A054E950359050013052003EF00F01B7D
:100BF00083C70C0085072380FC00B72500004A86C8
:100C00009385C5116800EF00102968006D2C13054D
:100C1000F00FF524B147E3FE47DF0145E5BB9387BD
:100C200087FD93F7F70FCD4663E5F6020C230145E8
:100C3000FD15D1281375F50F83C70C000A054E95D5
:100C400003590500938797FD130520033385A702F9
:100C500071BF23800400B7240140894513850480B7
:100C600023000700DD211305401FEF001014894504
:100C700013850480C929014A49B70D47E39DE7D888
:100C8000EFF04FEDAA8C0145913A9387FCFF93F763
:100C9000F70F2D47E361F7D893FCFC0FB725000051
:100CA000668693850513680023800400A300040072
:100CB000EF00701E6800012C1305F00F8924668573
:100CC000B7240140EFF09F91138504808545B52935
:100CD0001385048091458529894513850480B521B4
:100CE0001305A00FEF00700C894513850480A1291E
:100CF0001DB3EFF2EFD385451305002049250545C7
:100D00006D2D6FF02FD5EFF2AFD241112A842EC690
:100D1000C925B2454101818D85053375B5022295FE
:100D20006FF04FD3EFF2CFD005454D2D75DD6FF04D
:100D30006FD2B71702409843B706FFF84111136707
:100D4000170098C3D84337060200758FD8C398435D
:100D5000B706F7FEFD16758F98C39843B706FCFFDC
:100D6000FD16758F98C3D843B70681FFFD16758FA2
:100D7000D8C39843B70600ECFD16758F98C33707A4
:100D8000FF0098C723A6070202C402C69843C166A3
:100D9000558F98C3B716024005679C42F18F3EC637
:100DA000A24785073EC4B24781E7A247E397E7FE23
:100DB000B71702409C431397E70063570706854720
:100DC0003EC632478547631FF704B7170240D84332
:100DD000B706C1FFFD16D8C3D843D8C3D84313679D
:100DE0000740D8C3D843758FD8C3D843B7061D0072
:100DF000558FD8C39843B7060001558F98C39843C1
:100E000093166700E3DD06FED843B7160240719BD8
:100E1000D8C3D84313672700D8C32147DC42B18B1E
:100E2000E39EE7FE4101828002C661BF41112AC6EE
:100E3000B24799E341018280B247FD173EC6CDBF5C
:100E4000EFF20FBF05657D15D53737450140814568
:100E50001305058037440140712D930404809305E8
:100E600000082685452565DD130504809305F00FF0
:100E700037440140412593040480930500082685EA
:100E8000512565DD130504809305F00F37440140BB
:100E9000952593040480930500082685A52565DD26
:100EA000130504809305F00F37440140A125130476
:100EB0000480930500082285B12565DD05657D1553
:100EC000B5376FF02FB9EFF2AFB6B74401402A89BA
:100ED000014493840480B30789008385070091CD82
:100EE000C205C18126853925930500082685192D5F
:100EF00065DD05041374F40FF9BF6FF0AFB5EFF2C1
:100F00008FB193190501B74401402A890D4493D943
:100F1000090193840480630E0900CE852685D92BB0
:100F2000930500082685F92B65DD7D141374F40FF5
:100F30007DF06FF08FB101A001A001A001A001A080
:100F400001A001A001A001A001A001A001A001A099
:100F500001A001A001A001A001A001A001A001A089
:100F600001A001A001A001A001A001A001A001A079
:100F700001A001A001A001A001A001A001A001A069
:100F800001A001A001A001A001A001A001A001A059
:100F900001A001A001A001A001A001A001A001A049
:100FA00001A001A001A001A001A001A001A001A039
:100FB00001A001A001A001A001A001A001A001A029
:100FC00001A001A001A001A001A001A001A001A019
:100FD00001A001A001A001A001A001A001A001A009
:100FE00001A001A001A001A001A001A001A001A0F9
:100FF00001A001A0970100209381C18717710020F3
:1010000013014100171500001305C51797F5FF1FC1
:10101000938545FF1386018163FAC500832205008D
:1010200023A0550011059105E3EAC5FE1385018152
:101030009385C1886377B500232005001105E36D12
:10104000B5FEFD42739002BCAD4273904280B76220
:1010500000009382820873A0023097F2FFFF938210
:10106000E2FD93E2320073905230EFF09FCC970292
:1010700000009382828873901234730020309C4564
:1010800013F7070113F8F70001C7D8413368E800E8
:101090008E2113F7F50F39C318418146854E3D4F18
:1010A000930F800293028004214E3396DE00B3F842
:1010B000C500631116039398260033131F011343D1
:1010C000F3FF3377E300B318180133E7E800639FB9
:1010D000F70550C98506E39AC6FD18C11307F00F3E
:1010E0006375B70454412146854E3D4F930F8002EE
:1010F00093028004414EB398CE0033F715016392FA
:10110000E8021317260001173313EF001343F3FF10
:10111000B376D3003317E800D98E639DF701232AF5
:1011200015010506E319C6FD54C18280E39457FA00
:1011300010C94DB7E39757FE23281501DDB70845C1
:101140004205418182800CC982804CC9828019C2CB
:101150000CC982804CC982804CC5828023A2A182A6
:101160008280938741829443182181E63C21920733
:1011700021A894430546639FC6023C211031920783
:101180006314D60093E707F8B7E600E093F7F70F8C
:10119000BA962380F6408546935757003397E6006A
:1011A0005441A5C2938707048A07B7E600E0B697C3
:1011B00098C382808C4389466391D50214313C21C7
:1011C0006365D6008A06B6975DB79386E6038A06FE
:1011D000B69793F7F70F920775B790438D46631C48
:1011E000D60014313C216364D6008606E9BF93869D
:1011F000C6078606F1BF94439147E39EF6F81C317B
:10120000BDB7938707064DB7371702405C43914639
:10121000B18B6385D700A1466382D706B7177A00E2
:10122000938707201CC1371602405C423707002015
:10123000130707009183BD8BBA9794231C41B3D742
:10124000D7005CC15442A1829D8ABA969422B3D63B
:10125000D70014C55442AD829D8A36971823B3D760
:10126000E7005CC558423983937637001387418085
:1012700036971823B3D7E7021CC982805C435843D2
:10128000C166C983758FB7F6FF1F83A6C670BD8B75
:1012900089071396160163480600C5460146639206
:1012A000D702C94739A88946638FD702BD46638EE6
:1012B000D702C146638ED702C54601466393D70065
:1012C000C1471DEF3747024003270780418B05C701
:1012D00037177A0013070720B307F7021CC121D67E
:1012E0001C41858381B701466DBF0546B547D1BF17
:1012F0000146BD47F9B737173D0013070790E9BF0F
:10130000B7150240D8559316F700D85563DF060489
:1013100011833D8B9306170037177A0013070720B8
:101320003357D70218C1D455A182BD8A8DE29546A4
:101330003307D702058318C13717024058571441A5
:101340003D8B050733D7E60218C1184171B78545B3
:101350006394B600E546E9BFBD456396B600D14645
:101360003387E602C9BF8906E5BF3D8B93061700A8
:1013700037177A00130707203357D702F1B799C5FB
:10138000371702405C4B5D8D48CB8280B717024017
:10139000D84B1345F5FF798DC8CB828099C5371797
:1013A00002401C4F5D8D08CF8280B7170240984FD6
:1013B0001345F5FF798D88CF828037470240832718
:1013C00007C011C593E747002320F7C08280ED9B3B
:1013D000E5BFB747024003A587C08280B7470240F8
:1013E000938707C0DC437D8D3335A0008280EFE218
:1013F0003FE41629F577FD17F58FF621DA25797187
:10140000D58F1EA95625FD779387379FF58FD62157
:101410002A842EC6D58F9625D58FB625D58F5EA565
:101420005E29C207C18393F7F7CFD98F5EA96808F9
:10143000E13BB747014093870780B245631AF40444
:10144000A25756246547B387E702C206C186984172
:1014500063D20604060752244206B3D7E7021307F5
:1014600040064186B3D6E702B3F7E702920663551A
:1014700006028E0793872703B3D7E70213F7770097
:10148000B367D700C207C1831EA445616FE09FDC2C
:10149000925745BF0A07C1B7920793872703B3D76F
:1014A000E702BD8BD58FF9BF91C55E250967D98F3E
:1014B0005EA582805A25F977FD17F98FD5BF13F7FE
:1014C000F50F85471583B395B7006319F7009307A8
:1014D000C500984301CED98D8CC38280894693077D
:1014E0004501E318D7FE93070501E5B793C5F5FF5E
:1014F000F98DDDB793F5F51F4EA182804A21137552
:10150000F51F82800A216D8D3335A000828013F78C
:10151000F50F85461583B397B6006311D7025A2598
:10152000F98F1A2101454207418381CB0545A181ED
:10153000B315B5006D8F3335E000828089466314A2
:10154000D7001A29F1BF5A29E1BFB707002083A7A6
:10155000070737177A0013070720B3D7E70293F777
:10156000F70F2385F1821307803EB387E7022394A8
:10157000F1828280B7F700E0D8438146799BD8C3D7
:1015800003C7A1823306A70290CBD4CB984313673D
:10159000070198C398431367170298C3D843058B74
:1015A00075DF9843799B98C38280B7F700E0D843F2
:1015B0008146799BD8C303D781823306A70290CB9B
:1015C000D4CB98431367070198C398431367170256
:1015D00098C3D843058B75DF9843799B98C3828065
:1015E000EFE21FC5116579718545110502C602C874
:1015F000753393070020FC82371401408D473ECCA1
:101600004C08E147130504803ECEEFF05FA7930737
:101610000040FC824C089147130504803ECEEFF059
:101620001FA6F16737440140938707203ED00C1076
:10163000B7070C00130504803ED402D22316010222
:101640007D33054693055052130504808D3D930765
:1016500050137C8685475C87680085473EC8EFF05D
:101660005FB0854513050480813545616FE09FBEFD
:10167000138781801C439386C1883E95636BD50098
:10168000B78600209386068063E5A60008C33E85E2
:101690008280FD57EDBF35713ECBB707008093C701
:1016A000F7FF3ECE3EC8C1779387872032C536C745
:1016B0003AC942CD46CF3ECA9387C1802AC42ACCBC
:1016C000884334012E862C0086DE36C2F520A247E0
:1016D00023800700F6500D61828001114AC803A9DA
:1016E000850022CC52C45AC006CE26CA4EC656C267
:1016F0002E84328B368A63E82609DE2513F70748E5
:1017000049C304408C495848AA8AB389B4408D44DF
:10171000B384E4020947B3C4E402138716004E976A
:1017200063F3E400BA8493F70740ADCFA6855685EE
:10173000EF0090042A891DE1B14723A0FA005E243E
:101740007D5593E707045EA4F2406244D2444249C7
:10175000B249224A924A024B056182800C484E8669
:10176000B52D5E2493F7F7B793E707085EA4232807
:10177000240144C84E99B38434412320240104C475
:10178000528963732A01528908404A86DA85012703
:101790001C440145B38727411CC41C403E992320AB
:1017A00024015DB726865685EF00F0092A8961F18C
:1017B0000C485685052749B7DE25717126D34AD1D5
:1017C0004ECF06D722D552CD56CB5AC95EC762C579
:1017D00066C393F70708AA892E89B284B1C39C49CE
:1017E000A1E39305000436C6412F2320A900232836
:1017F000A900B24615E1B14723A0F9007D55BA50C2
:101800002A549A540A59FA496A4ADA4A4A4BBA4B54
:101810002A4C9A4C4D61828093070004232AF900D8
:1018200093070002A30CF1029307000302DA230DD1
:10183000F10236CE930B5002971A0000938ACA9099
:10184000054C294B26841C2099C363977709B30C58
:101850009440638D0C00E6862686CA854E85B53D8C
:10186000FD576308F518D256E69636DA1C206382D7
:101870000718FD579304140002D002D63ED202D4BA
:10188000A301010682DC8C2015465685252B138486
:101890001400825721E513F7070109C71307000257
:1018A000A301E10613F7870009C71307B002A301DC
:1018B000E10694201307A002638AE602B257268449
:1018C00081462546182093051400130707FD63720F
:1018D000E6068DC63ED61DA00504B5B733055541B5
:1018E0003315AC00C98F3ED0A28471BF72479306F6
:1018F0004700184336CE634707023AD618209307AD
:10190000E002631DF70418309307A002631BF7027F
:10191000F2470904138747009C433ACE63C107028C
:101920003ED22DA83307E04093E727003AD63ED0B9
:10193000F1B7B387670385462E84BA9761B7FD5721
:10194000C5B7050402D28146814725461820930574
:101950001400130707FD6374E606F9F20C200D4628
:10196000170500001305C57EB12911CD97070000AA
:101970009387077E1D8D93070004B397A700025538
:1019800005045D8D2AD00C201946170500001305AB
:10199000657C93041400230CB1022D2125C597E723
:1019A000FFFF9387276695E70257F24713770710E3
:1019B00009CF91073ECED257D2973EDA61B5B387B1
:1019C000670385462E84BA9751B79D07E19BA1070F
:1019D000D5B7780897060000938666D04A860C1023
:1019E0004E8597000000E7000000FD572A8AE314A7
:1019F000F5FC8357C9007D5593F70704E39107E091
:101A00005255F5BB780897060000938646CD4A8666
:101A10000C104E85012AD1BF797156CA9C49BA8AE9
:101A2000984522D426D24ECE52CC06D64AD05AC899
:101A30005EC6AA892E84B284368A63D3E700BA8749
:101A40009CC00347340419C385079CC01C4093F70E
:101A5000070281C79C4089079CC0032904001379B1
:101A60006900631A0900130B9401FD5B5C44984004
:101A7000998F634CF9041C408346340493F70702A2
:101A8000B336D000A5EB13063404D2854E85829A76
:101A9000FD576303F5041C4011469840998B54444C
:101AA00081446397C700B384E64063D30400814454
:101AB0001C4418486354F700998FBE940149690487
:101AC0007D5B63982405014509A885465A86D28521
:101AD0004E85829A631E75017D55B25022549254F0
:101AE0000259F249624AD24A424BB24B4561828066
:101AF0000509ADBF3307D40013060003A301C704D3
:101B00000347540493871600A2978906A381E7042C
:101B10009DBF85462286D2854E85829AE30E65FB5F
:101B2000050945B7797122D426D24AD04ECE06D6C1
:101B300052CC56CA5AC8B689942D9307900632895A
:101B4000AA842E8413863504638DF60263E2D706D9
:101B5000930780056385F61863EDD700638D062033
:101B600093073004638EF60A930A24042301D404F5
:101B7000C9A0930730066385F60A93074006E395EC
:101B8000F6FE1C40084393F6070893054500C5C6BA
:101B90001C410CC363D807001307D002B307F04001
:101BA000A301E404970600009386465B294765A8D5
:101BB000930700076381F61663E5D7029307E006F3
:101BC0006388F6189307F006E390F6FA0C401C437E
:101BD00013F80508138547006307080608C39C43EC
:101BE00085A893075007E383F6FE93078007638871
:101BF000F61293073007E399F6F61C43D04181456E
:101C00009386470014C383AA07005685652A01C539
:101C10003305554148C05C401CC8A301040461A8B9
:101C20001C43930A2404938647009C4314C3230156
:101C3000F4048547D5B793F607041C410CC3B9DA01
:101C4000C207C18781BF93F5050408C3C9D99E2384
:101C50001307F0066386E60E97060000938606508B
:101C60002947A30104044C400CC463C50500084087
:101C70006D9908C099E3B28A89CDB28AB3F5E702BB
:101C8000FD1AB6958C212380BA00B3D5E70263FF15
:101C9000E70AA147631EF7001C40858B91CB584093
:101CA0001C4863C7E70093070003A38FFAFEFD1AE1
:101CB0003306564110C84E87CA867000A285268515
:101CC000A13B7D5A631D450B7D55B2502254925461
:101CD0000259F249624AD24A424B45618280A3824C
:101CE000D50497060000938666470C40084313F816
:101CF00005081C411105630D080208C313F7150000
:101D000001C793E505020CC04147A1FF0C4093F5C4
:101D1000F5FD0CC0B9B79C4193E707029CC193073E
:101D20008007A302F404970600009386664475BFFB
:101D300013F8050408C3E30308FCC207C1837DBF91
:101D40009706000093868641214721BFAE873DB7A5
:101D500094411C43CC4913F80608138547006306D9
:101D6000080008C39C438CC339A008C393F606043B
:101D70009C43F5DA8EA323280400B28A2DBF1448B1
:101D80005686CA8526858299E30045F51C40898BD5
:101D90008DE7B2474844E35AF5F23E853DB78546A4
:101DA0005686CA8526858299E30065F3050A5C4458
:101DB0003247998FE345FAFEE9BF014A930A94013D
:101DC0007D5BF5B793F5F50F2A966314C5000145C1
:101DD00082801C21E38EB7FE0505C5BFB3C7A500F1
:101DE0008D8B3307C50081E78D4763EDC700AA8758
:101DF000637EE508942185078505A38FD7FEE3EB75
:101E0000E7FE828093763500AA8789CA94218507E8
:101E10008505A38FD7FE93F63700C5BF9376C7FF1E
:101E2000138606FE63F0C70683A3050083A2450060
:101E300083AF850003AFC50083AE050103AE450146
:101E400003A3850183A8C5019385450223A07700DC
:101E500003A8C5FF23A2570023A4F70123A6E70187
:101E600023A8D70123AAC70123AC670023AE17011B
:101E70009387470223AE07FF75B7904191079105FD
:101E800023AEC7FEE3EBD7FEE3E6E7F6828063F11D
:101E9000A504B386C500637DD5029345F6FF81474F
:101EA000FD176393F50082803387F600034807002F
:101EB0003387C7002A9723000701DDB73387F50072
:101EC00014233307F500850714A3E319F6FE828077
:101ED0008147E5BFCDC183A7C5FF411122C406C616
:101EE00026C21384C5FF63D307003E94AA84C12A87
:101EF0009387C1829C4399EB2322040023A681820D
:101F00002244B2402685924441015DAA637EF400DA
:101F100014403307D4006396E7009843DC433697B8
:101F200018C05CC0E1BFBA87D84319C3E37DE4FEA3
:101F300094433386D700631F86001040B29694C343
:101F40003386D700E31EC7FA10435843B29694C3B2
:101F5000D8C37DB76375C400B1479CC055B7104066
:101F6000B306C4006316D70014435843B29614C096
:101F700058C0C0C371B78280011126CA938435004E
:101F8000F19806CE22CC4AC84EC6A104B14763F1EF
:101F9000F404B14463E0B4042A8915229387C18212
:101FA00098433A8431E0938701839C4391E78145CC
:101FB0004A85CD2023A8A182A6854A85E128FD591E
:101FC00063173507B1472320F9004A85D52829A092
:101FD000E3D204FCB1471CC10145F2406244D24443
:101FE0004249B249056182801C40858F63CE070259
:101FF000AD4663F6F6001CC03E9404C031A05C40C0
:102000006312870223A6F1824A855D281305B40076
:102010009307440061993307F54061D33A94898F5F
:102020001CC065BF5CC3CDB722874040A5BF130469
:1020300035007198E30385FCB305A4404A859928CF
:10204000E31D35FB41B799E1B2853DB7011122CCC3
:1020500006CE26CA4AC84EC6328419EAA53D0149B1
:10206000F24062444A85D2444249B24905618280C5
:10207000AE84AA89B9202689E37485FEA2854E859F
:10208000E53D2A8971DDA6852286893BA6854E8598
:102090009135F9B7411122C42A842E8523A40188E1
:1020A00006C6EFF0EFDCFD576317F50093878188D4
:1020B0009C4391C31CC0B240224441018280828073
:1020C000828083A7C5FF1385C7FF63D50700AA9544
:1020D0009C413E95828000002206000034060000EC
:1020E0005C06000088060000B0060000CE06000076
:1020F000F606000014070000320700005007000039
:102100006E0700008C070000AA07000070302E74D4
:10211000322E7478743D2225642200006D6F646550
:10212000322E7431302E7478743D222564220000E2
:102130006D6F6465332E74302E7478743D2225647F
:1021400022000000232D302B20000000686C4C0082
:1021500065666745464700003031323334353637DF
:1021600038394142434445460000000030313233A3
:1021700034353637383961626364656600000000C3
:10218000000000000102030401020304060708091D
:10219000000000000000000000000000000000003F
:1021A000000000000000000000000000000000002F
:1021B000000000000000000000000000000000001F
:1021C000000000000000000000000000000000000F
:1021D00000000000000000000000000000000000FF
:1021E00000000000000000000000000000000000EF
:1021F00000A24A0402040608FC000020100000208F
:00000001FF
